{
  "contractName": "Adoption",
  "abi": [
    {
      "constant": false,
      "inputs": [],
      "name": "getAdopters",
      "outputs": [
        {
          "name": "",
          "type": "address[16]"
        }
      ],
      "payable": false,
      "stateMutability": "nonpayable",
      "type": "function"
    },
    {
      "constant": true,
      "inputs": [
        {
          "name": "",
          "type": "uint256"
        }
      ],
      "name": "adopters",
      "outputs": [
        {
          "name": "",
          "type": "address"
        }
      ],
      "payable": false,
      "stateMutability": "view",
      "type": "function"
    },
    {
      "constant": false,
      "inputs": [
        {
          "name": "petId",
          "type": "uint256"
        }
      ],
      "name": "charge",
      "outputs": [
        {
          "name": "",
          "type": "bool"
        }
      ],
      "payable": true,
      "stateMutability": "payable",
      "type": "function"
    },
    {
      "constant": false,
      "inputs": [
        {
          "name": "petId",
          "type": "uint256"
        }
      ],
      "name": "adopt",
      "outputs": [
        {
          "name": "",
          "type": "uint256"
        }
      ],
      "payable": false,
      "stateMutability": "nonpayable",
      "type": "function"
    },
    {
      "inputs": [],
      "payable": false,
      "stateMutability": "nonpayable",
      "type": "constructor",
      "constant": true,
      "name": "amount",
      "outputs": [
        {
          "name": "",
          "type": "uint256"
        }
      ]
    },
    {
      "inputs": [],
      "payable": false,
      "stateMutability": "nonpayable",
      "type": "constructor"
    }
  ],
  "bytecode": "0x6060604052341561000f57600080fd5b33601060006101000a81548173ffffffffffffffffffffffffffffffffffffffff021916908373ffffffffffffffffffffffffffffffffffffffff1602179055506103138061005f6000396000f300606060405260043610610062576000357c0100000000000000000000000000000000000000000000000000000000900463ffffffff1680633de4eb171461006757806343ae80d3146100b8578063551619131461011b5780638588b2c51461013d575b600080fd5b341561007257600080fd5b61007a610174565b6040518082601060200280838360005b838110156100a557808201518184015260208101905061008a565b5050505090500191505060405180910390f35b34156100c357600080fd5b6100d960048080359060200190919050506101f5565b604051808273ffffffffffffffffffffffffffffffffffffffff1673ffffffffffffffffffffffffffffffffffffffff16815260200191505060405180910390f35b61012361022a565b604051808215151515815260200191505060405180910390f35b341561014857600080fd5b61015e6004808035906020019091905050610233565b6040518082815260200191505060405180910390f35b61017c6102a8565b60006010806020026040519081016040528092919082601080156101eb576020028201915b8160009054906101000a900473ffffffffffffffffffffffffffffffffffffffff1673ffffffffffffffffffffffffffffffffffffffff16815260200190600101908083116101a1575b5050505050905090565b60008160108110151561020457fe5b016000915054906101000a900473ffffffffffffffffffffffffffffffffffffffff1681565b60006001905090565b60008082101580156102465750600f8211155b151561025157600080fd5b3360008360108110151561026157fe5b0160006101000a81548173ffffffffffffffffffffffffffffffffffffffff021916908373ffffffffffffffffffffffffffffffffffffffff160217905550819050919050565b610200604051908101604052806010905b600073ffffffffffffffffffffffffffffffffffffffff168152602001906001900390816102b957905050905600a165627a7a723058207a256f2267b7bd3e81fb150a05e3c17f9634d7b3a5bd8b7eeaed37187a0bbe560029",
  "source": "pragma solidity ^0.4.4;\n\ncontract Adoption {\n\n  address[16] public adopters;\n  address private owner; //this stores the contract oners address\n  \n\n  //Constructor \n  //gets automatically called only once with owners address when contract is first deployed \n  function Adoption () public{\n\towner = msg.sender;\n  }\n\n  // Adopting a pet\nfunction adopt(uint petId) public returns (uint) {\n  require(petId >= 0 && petId <= 15);\n\n  adopters[petId] = msg.sender;\n\n  return petId;\n}\n\n\n// Retrieving the adopters\nfunction getAdopters() public returns (address[16]) {\n  return adopters;\n}\n\nfunction charge() payable public returns (bool) {\n  return true;\n}\n\n\n}",
  "sourcePath": "/Users/Dipro/blockchain/projects/ethereum-game-market/contracts/Adoption.sol",
  "compiler": {
    "name": "solc",
    "version": "0.4.18+commit.9cf6e910.Emscripten.clang"
  },
  "schemaVersion": "1.0.1",
  "updatedAt": "2017-12-07T00:06:29.285Z"
}