{
  "contractName": "Adoption",
  "abi": [
    {
      "constant": false,
      "inputs": [],
      "name": "getAdopters",
      "outputs": [
        {
          "name": "",
          "type": "address[16]"
        }
      ],
      "payable": false,
      "stateMutability": "nonpayable",
      "type": "function"
    },
    {
      "constant": true,
      "inputs": [
        {
          "name": "",
          "type": "uint256"
        }
      ],
      "name": "adopters",
      "outputs": [
        {
          "name": "",
          "type": "address"
        }
      ],
      "payable": false,
      "stateMutability": "view",
      "type": "function"
    },
    {
      "constant": false,
      "inputs": [
        {
          "name": "petId",
          "type": "uint256"
        }
      ],
      "name": "charge",
      "outputs": [
        {
          "name": "",
          "type": "uint256"
        }
      ],
      "payable": true,
      "stateMutability": "payable",
      "type": "function"
    },
    {
      "constant": false,
      "inputs": [
        {
          "name": "petId",
          "type": "uint256"
        }
      ],
      "name": "adopt",
      "outputs": [
        {
          "name": "",
          "type": "uint256"
        }
      ],
      "payable": false,
      "stateMutability": "nonpayable",
      "type": "function"
    },
    {
      "inputs": [],
      "payable": false,
      "stateMutability": "nonpayable",
      "type": "constructor"
    }
  ],
  "bytecode": "0x6060604052341561000f57600080fd5b33601060006101000a81548173ffffffffffffffffffffffffffffffffffffffff021916908373ffffffffffffffffffffffffffffffffffffffff16021790555061035f8061005f6000396000f300606060405260043610610062576000357c0100000000000000000000000000000000000000000000000000000000900463ffffffff1680633de4eb171461006757806343ae80d3146100b8578063551619131461011b5780638588b2c514610125575b600080fd5b341561007257600080fd5b61007a61015c565b6040518082601060200280838360005b838110156100a557808201518184015260208101905061008a565b5050505090500191505060405180910390f35b34156100c357600080fd5b6100d960048080359060200190919050506101dd565b604051808273ffffffffffffffffffffffffffffffffffffffff1673ffffffffffffffffffffffffffffffffffffffff16815260200191505060405180910390f35b610123610212565b005b341561013057600080fd5b610146600480803590602001909190505061027f565b6040518082815260200191505060405180910390f35b6101646102f4565b60006010806020026040519081016040528092919082601080156101d3576020028201915b8160009054906101000a900473ffffffffffffffffffffffffffffffffffffffff1673ffffffffffffffffffffffffffffffffffffffff1681526020019060010190808311610189575b5050505050905090565b6000816010811015156101ec57fe5b016000915054906101000a900473ffffffffffffffffffffffffffffffffffffffff1681565b34601181905550601060009054906101000a900473ffffffffffffffffffffffffffffffffffffffff1673ffffffffffffffffffffffffffffffffffffffff166108fc6011549081150290604051600060405180830381858888f19350505050151561027d57600080fd5b565b60008082101580156102925750600f8211155b151561029d57600080fd5b336000836010811015156102ad57fe5b0160006101000a81548173ffffffffffffffffffffffffffffffffffffffff021916908373ffffffffffffffffffffffffffffffffffffffff160217905550819050919050565b610200604051908101604052806010905b600073ffffffffffffffffffffffffffffffffffffffff1681526020019060019003908161030557905050905600a165627a7a723058206b3da52700b2e020249e740e86c708f1eb25aea500fc71e5a21ff1490f61355e0029",
  "source": "pragma solidity ^0.4.4;\n\ncontract Adoption {\n\n  address[16] public adopters;\n  address private owner; //this stores the contract oners address\n  uint private amount;\n\n  //Constructor \n  //gets automatically called only once with owners address when contract is first deployed \n  function Adoption () public{\n\towner = msg.sender;\n  }\n\n  // Adopting a pet\nfunction adopt(uint petId) public returns (uint) {\n  require(petId >= 0 && petId <= 15);\n\n  adopters[petId] = msg.sender;\n\n  return petId;\n}\n\n\n// Retrieving the adopters\nfunction getAdopters() public returns (address[16]) {\n  return adopters;\n}\n\n function charge() payable {\n       amount = msg.value;\n       owner.transfer(amount);\n    }\n\n}",
  "sourcePath": "/Users/Dipro/blockchain/projects/ethereum-game-market/contracts/Adoption.sol",
  "compiler": {
    "name": "solc",
    "version": "0.4.18+commit.9cf6e910.Emscripten.clang"
  },
  "schemaVersion": "1.0.1",
  "updatedAt": "2017-12-06T01:43:44.348Z"
}